{
  "contractName": "FloodFund",
  "abi": [
    {
      "inputs": [
        {
          "internalType": "string",
          "name": "_name",
          "type": "string"
        },
        {
          "internalType": "string",
          "name": "_mobileNumber",
          "type": "string"
        }
      ],
      "name": "registerDonor",
      "outputs": [],
      "stateMutability": "nonpayable",
      "type": "function"
    },
    {
      "inputs": [
        {
          "internalType": "string",
          "name": "_fundraiserZone",
          "type": "string"
        },
        {
          "internalType": "string",
          "name": "_mobileNumber",
          "type": "string"
        }
      ],
      "name": "donate",
      "outputs": [],
      "stateMutability": "payable",
      "type": "function",
      "payable": true
    },
    {
      "inputs": [],
      "name": "getBalance",
      "outputs": [
        {
          "internalType": "uint256",
          "name": "",
          "type": "uint256"
        },
        {
          "internalType": "uint256",
          "name": "",
          "type": "uint256"
        },
        {
          "internalType": "uint256",
          "name": "",
          "type": "uint256"
        },
        {
          "internalType": "uint256",
          "name": "",
          "type": "uint256"
        }
      ],
      "stateMutability": "view",
      "type": "function",
      "constant": true
    },
    {
      "inputs": [
        {
          "internalType": "address",
          "name": "_donorAddress",
          "type": "address"
        }
      ],
      "name": "getDonorInfoByAddress",
      "outputs": [
        {
          "internalType": "string",
          "name": "",
          "type": "string"
        },
        {
          "internalType": "string",
          "name": "",
          "type": "string"
        }
      ],
      "stateMutability": "view",
      "type": "function",
      "constant": true
    }
  ],
  "bytecode": "0x608060405273df524b65e3c5d729fef55697d583d5e7e6dd26b36000806101000a81548173ffffffffffffffffffffffffffffffffffffffff021916908373ffffffffffffffffffffffffffffffffffffffff1602179055507387e818db71e6db793c005336bc4be071710bbd90600160006101000a81548173ffffffffffffffffffffffffffffffffffffffff021916908373ffffffffffffffffffffffffffffffffffffffff16021790555073831c55a49c4fa7fbdc6017c0aeaa65862f5a0e38600260006101000a81548173ffffffffffffffffffffffffffffffffffffffff021916908373ffffffffffffffffffffffffffffffffffffffff16021790555034801561010e57600080fd5b506116e58061011e6000396000f3fe60806040526004361061003f5760003560e01c806312065fe0146100445780631653441c14610072578063a577589e1461008e578063c4691929146100b7575b600080fd5b34801561005057600080fd5b506100596100f5565b6040516100699493929190610a34565b60405180910390f35b61008c60048036038101906100879190610bd3565b6101e5565b005b34801561009a57600080fd5b506100b560048036038101906100b09190610bd3565b610535565b005b3480156100c357600080fd5b506100de60048036038101906100d99190610ca9565b610787565b6040516100ec929190610d55565b60405180910390f35b60008060008060008060009054906101000a900473ffffffffffffffffffffffffffffffffffffffff1673ffffffffffffffffffffffffffffffffffffffff163190506000600160009054906101000a900473ffffffffffffffffffffffffffffffffffffffff1673ffffffffffffffffffffffffffffffffffffffff163190506000600260009054906101000a900473ffffffffffffffffffffffffffffffffffffffff1673ffffffffffffffffffffffffffffffffffffffff1631905060008183856101c39190610dbb565b6101cd9190610dbb565b90508383838397509750975097505050505090919293565b6000815103610229576040517f08c379a000000000000000000000000000000000000000000000000000000000815260040161022090610e3b565b60405180910390fd5b6000341161026c576040517f08c379a000000000000000000000000000000000000000000000000000000000815260040161026390610ea7565b60405180910390fd5b8060405160200161027d9190610f03565b60405160208183030381529060405280519060200120600360003373ffffffffffffffffffffffffffffffffffffffff1673ffffffffffffffffffffffffffffffffffffffff1681526020019081526020016000206001016040516020016102e59190611012565b604051602081830303815290604052805190602001201461033b576040517f08c379a00000000000000000000000000000000000000000000000000000000081526004016103329061109b565b60405180910390fd5b600060405160200161034c90611107565b60405160208183030381529060405280519060200120836040516020016103739190610f03565b60405160208183030381529060405280519060200120036103b65760008054906101000a900473ffffffffffffffffffffffffffffffffffffffff1690506104e9565b6040516020016103c590611168565b60405160208183030381529060405280519060200120836040516020016103ec9190610f03565b604051602081830303815290604052805190602001200361043157600260009054906101000a900473ffffffffffffffffffffffffffffffffffffffff1690506104e8565b604051602001610440906111c9565b60405160208183030381529060405280519060200120836040516020016104679190610f03565b60405160208183030381529060405280519060200120036104ac57600160009054906101000a900473ffffffffffffffffffffffffffffffffffffffff1690506104e7565b6040517f08c379a00000000000000000000000000000000000000000000000000000000081526004016104de9061122a565b60405180910390fd5b5b5b8073ffffffffffffffffffffffffffffffffffffffff166108fc349081150290604051600060405180830381858888f1935050505015801561052f573d6000803e3d6000fd5b50505050565b60008054906101000a900473ffffffffffffffffffffffffffffffffffffffff1673ffffffffffffffffffffffffffffffffffffffff163373ffffffffffffffffffffffffffffffffffffffff16141580156105df5750600160009054906101000a900473ffffffffffffffffffffffffffffffffffffffff1673ffffffffffffffffffffffffffffffffffffffff163373ffffffffffffffffffffffffffffffffffffffff1614155b80156106395750600260009054906101000a900473ffffffffffffffffffffffffffffffffffffffff1673ffffffffffffffffffffffffffffffffffffffff163373ffffffffffffffffffffffffffffffffffffffff1614155b610678576040517f08c379a000000000000000000000000000000000000000000000000000000000815260040161066f906112e2565b60405180910390fd5b60008251036106bc576040517f08c379a00000000000000000000000000000000000000000000000000000000081526004016106b39061134e565b60405180910390fd5b6000815103610700576040517f08c379a00000000000000000000000000000000000000000000000000000000081526004016106f7906113ba565b60405180910390fd5b604051806040016040528083815260200182815250600360003373ffffffffffffffffffffffffffffffffffffffff1673ffffffffffffffffffffffffffffffffffffffff16815260200190815260200160002060008201518160000190816107699190611571565b50602082015181600101908161077f9190611571565b509050505050565b6060806000600360008573ffffffffffffffffffffffffffffffffffffffff1673ffffffffffffffffffffffffffffffffffffffff16815260200190815260200160002060000180546107d990610f49565b905014158061083757506000600360008573ffffffffffffffffffffffffffffffffffffffff1673ffffffffffffffffffffffffffffffffffffffff168152602001908152602001600020600101805461083290610f49565b905014155b610876576040517f08c379a000000000000000000000000000000000000000000000000000000000815260040161086d9061168f565b60405180910390fd5b600360008473ffffffffffffffffffffffffffffffffffffffff1673ffffffffffffffffffffffffffffffffffffffff168152602001908152602001600020600001600360008573ffffffffffffffffffffffffffffffffffffffff1673ffffffffffffffffffffffffffffffffffffffff16815260200190815260200160002060010181805461090690610f49565b80601f016020809104026020016040519081016040528092919081815260200182805461093290610f49565b801561097f5780601f106109545761010080835404028352916020019161097f565b820191906000526020600020905b81548152906001019060200180831161096257829003601f168201915b5050505050915080805461099290610f49565b80601f01602080910402602001604051908101604052809291908181526020018280546109be90610f49565b8015610a0b5780601f106109e057610100808354040283529160200191610a0b565b820191906000526020600020905b8154815290600101906020018083116109ee57829003601f168201915b5050505050905091509150915091565b6000819050919050565b610a2e81610a1b565b82525050565b6000608082019050610a496000830187610a25565b610a566020830186610a25565b610a636040830185610a25565b610a706060830184610a25565b95945050505050565b6000604051905090565b600080fd5b600080fd5b600080fd5b600080fd5b6000601f19601f8301169050919050565b7f4e487b7100000000000000000000000000000000000000000000000000000000600052604160045260246000fd5b610ae082610a97565b810181811067ffffffffffffffff82111715610aff57610afe610aa8565b5b80604052505050565b6000610b12610a79565b9050610b1e8282610ad7565b919050565b600067ffffffffffffffff821115610b3e57610b3d610aa8565b5b610b4782610a97565b9050602081019050919050565b82818337600083830152505050565b6000610b76610b7184610b23565b610b08565b905082815260208101848484011115610b9257610b91610a92565b5b610b9d848285610b54565b509392505050565b600082601f830112610bba57610bb9610a8d565b5b8135610bca848260208601610b63565b91505092915050565b60008060408385031215610bea57610be9610a83565b5b600083013567ffffffffffffffff811115610c0857610c07610a88565b5b610c1485828601610ba5565b925050602083013567ffffffffffffffff811115610c3557610c34610a88565b5b610c4185828601610ba5565b9150509250929050565b600073ffffffffffffffffffffffffffffffffffffffff82169050919050565b6000610c7682610c4b565b9050919050565b610c8681610c6b565b8114610c9157600080fd5b50565b600081359050610ca381610c7d565b92915050565b600060208284031215610cbf57610cbe610a83565b5b6000610ccd84828501610c94565b91505092915050565b600081519050919050565b600082825260208201905092915050565b60005b83811015610d10578082015181840152602081019050610cf5565b60008484015250505050565b6000610d2782610cd6565b610d318185610ce1565b9350610d41818560208601610cf2565b610d4a81610a97565b840191505092915050565b60006040820190508181036000830152610d6f8185610d1c565b90508181036020830152610d838184610d1c565b90509392505050565b7f4e487b7100000000000000000000000000000000000000000000000000000000600052601160045260246000fd5b6000610dc682610a1b565b9150610dd183610a1b565b9250828201905080821115610de957610de8610d8c565b5b92915050565b7f506c656173652070726f7669646520746865206d6f62696c65206e756d626572600082015250565b6000610e25602083610ce1565b9150610e3082610def565b602082019050919050565b60006020820190508181036000830152610e5481610e18565b9050919050565b7f446f6e6174696f6e206d7573742062652067726561746572207468616e203000600082015250565b6000610e91601f83610ce1565b9150610e9c82610e5b565b602082019050919050565b60006020820190508181036000830152610ec081610e84565b9050919050565b600081905092915050565b6000610edd82610cd6565b610ee78185610ec7565b9350610ef7818560208601610cf2565b80840191505092915050565b6000610f0f8284610ed2565b915081905092915050565b7f4e487b7100000000000000000000000000000000000000000000000000000000600052602260045260246000fd5b60006002820490506001821680610f6157607f821691505b602082108103610f7457610f73610f1a565b5b50919050565b60008190508160005260206000209050919050565b60008154610f9c81610f49565b610fa68186610ec7565b94506001821660008114610fc15760018114610fd657611009565b60ff1983168652811515820286019350611009565b610fdf85610f7a565b60005b8381101561100157815481890152600182019150602081019050610fe2565b838801955050505b50505092915050565b600061101e8284610f8f565b915081905092915050565b7f4d6f62696c65204e756d626572206e6f74206d617463686564206f72206e6f7460008201527f20726567697374657265642e0000000000000000000000000000000000000000602082015250565b6000611085602c83610ce1565b915061109082611029565b604082019050919050565b600060208201905081810360008301526110b481611078565b9050919050565b7f73796c6865740000000000000000000000000000000000000000000000000000600082015250565b60006110f1600683610ec7565b91506110fc826110bb565b600682019050919050565b6000611112826110e4565b9150819050919050565b7f636869747461676f6e672d736f75746800000000000000000000000000000000600082015250565b6000611152601083610ec7565b915061115d8261111c565b601082019050919050565b600061117382611145565b9150819050919050565b7f636869747461676f6e672d6e6f72746800000000000000000000000000000000600082015250565b60006111b3601083610ec7565b91506111be8261117d565b601082019050919050565b60006111d4826111a6565b9150819050919050565b7f556e617661696c61626c65207a6f6e6500000000000000000000000000000000600082015250565b6000611214601083610ce1565b915061121f826111de565b602082019050919050565b6000602082019050818103600083015261124381611207565b9050919050565b7f596f7572206163636f756e7420697320612066756e647261697365722061636360008201527f6f756e742e20506c65617365207573652061206e6f6e2d66756e64726569736560208201527f72206163636f756e742e00000000000000000000000000000000000000000000604082015250565b60006112cc604a83610ce1565b91506112d78261124a565b606082019050919050565b600060208201905081810360008301526112fb816112bf565b9050919050565b7f506c656173652070726f76696465206e616d652e000000000000000000000000600082015250565b6000611338601483610ce1565b915061134382611302565b602082019050919050565b600060208201905081810360008301526113678161132b565b9050919050565b7f506c656173652070726f76696465206d6f62696c65206e756d6265722e000000600082015250565b60006113a4601d83610ce1565b91506113af8261136e565b602082019050919050565b600060208201905081810360008301526113d381611397565b9050919050565b60006020601f8301049050919050565b600082821b905092915050565b6000600883026114277fffffffffffffffffffffffffffffffffffffffffffffffffffffffffffffffff826113ea565b61143186836113ea565b95508019841693508086168417925050509392505050565b6000819050919050565b600061146e61146961146484610a1b565b611449565b610a1b565b9050919050565b6000819050919050565b61148883611453565b61149c61149482611475565b8484546113f7565b825550505050565b600090565b6114b16114a4565b6114bc81848461147f565b505050565b5b818110156114e0576114d56000826114a9565b6001810190506114c2565b5050565b601f821115611525576114f681610f7a565b6114ff846113da565b8101602085101561150e578190505b61152261151a856113da565b8301826114c1565b50505b505050565b600082821c905092915050565b60006115486000198460080261152a565b1980831691505092915050565b60006115618383611537565b9150826002028217905092915050565b61157a82610cd6565b67ffffffffffffffff81111561159357611592610aa8565b5b61159d8254610f49565b6115a88282856114e4565b600060209050601f8311600181146115db57600084156115c9578287015190505b6115d38582611555565b86555061163b565b601f1984166115e986610f7a565b60005b82811015611611578489015182556001820191506020850194506020810190506115ec565b8683101561162e578489015161162a601f891682611537565b8355505b6001600288020188555050505b505050505050565b7f41646472657373206e6f74207265676973746572656400000000000000000000600082015250565b6000611679601683610ce1565b915061168482611643565b602082019050919050565b600060208201905081810360008301526116a88161166c565b905091905056fea264697066735822122009c9f15f87b6898db3f7d05d90abc9238e5601a88b55381b50f3e2d691ecc0ef64736f6c63430008100033",
  "immutableReferences": {},
  "source": "// SPDX-License-Identifier: MIT\npragma solidity ^0.8.0;\n\ncontract FloodFund {\n    // replace the addresses from your REMIX IDE | here public can also be used\n    address payable private fundraiserSylhet = payable(0xDf524B65E3C5D729Fef55697d583D5e7e6Dd26b3);\n    address payable private fundraiserCtgNorth = payable(0x87E818Db71E6dB793c005336BC4bE071710bbD90);\n    address payable private fundraiserCtgSouth = payable(0x831C55A49c4fA7fbdc6017c0aEAA65862f5a0E38);\n\n    struct Donor {\n        string name;\n        string mobileNumber;\n    }\n\n    struct Balance{\n        uint256 sylhet;\n        uint256 ctgNorth;\n        uint256 ctgSouth;\n        uint256 total;\n    }\n\n    mapping ( address => Donor ) donorList;\n\n    // if false, the function will revert and the message in string mentioned will be thrown | if true the function continues to execute \n    modifier exceptFundreiser() {\n        require(\n            msg.sender != fundraiserSylhet &&\n            msg.sender != fundraiserCtgNorth &&\n            msg.sender != fundraiserCtgSouth,\n            \"Your account is a fundraiser account. Please use a non-fundreiser account.\"\n        );\n        _;\n    }\n\n    // registering the donor | the the beginning of the function call the exceptFundreiser will be executed to check its condition\n     function registerDonor(string memory _name, string memory _mobileNumber) public exceptFundreiser {\n        require(bytes(_name).length != 0, \"Please provide name.\");\n        require(bytes(_mobileNumber).length != 0, \"Please provide mobile number.\");\n        donorList[msg.sender] = Donor(_name, _mobileNumber);\n    }\n\n\n    function donate(string memory _fundraiserZone, string memory _mobileNumber) public payable {\n        require(bytes(_mobileNumber).length != 0, \"Please provide the mobile number\");\n        require(msg.value > 0, \"Donation must be greater than 0\");\n        require(keccak256(abi.encodePacked(donorList[msg.sender].mobileNumber)) == keccak256(abi.encodePacked(_mobileNumber)), \"Mobile Number not matched or not registered.\");\n\n        address payable destination;\n        \n        if (keccak256(abi.encodePacked(_fundraiserZone)) == keccak256(abi.encodePacked(\"sylhet\"))) {\n            destination = fundraiserSylhet;\n        } else if (keccak256(abi.encodePacked(_fundraiserZone)) == keccak256(abi.encodePacked(\"chittagong-south\"))) {\n            destination = fundraiserCtgSouth;\n        } else if (keccak256(abi.encodePacked(_fundraiserZone)) == keccak256(abi.encodePacked(\"chittagong-north\"))) {\n            destination = fundraiserCtgNorth;\n        } else {\n            revert(\"Unavailable zone\");\n        }\n\n        destination.transfer(msg.value);\n        \n    }\n\n    // getting all of the individual and total balance  \n    function getBalance() public view returns (uint256, uint256, uint256, uint256) {\n        uint256 sylhetBalance = fundraiserSylhet.balance;\n        uint256 ctgNorthBalance = fundraiserCtgNorth.balance;\n        uint256 ctgSouthBalance = fundraiserCtgSouth.balance;\n        uint256 totalBalance = sylhetBalance + ctgNorthBalance + ctgSouthBalance;\n\n        return (sylhetBalance, ctgNorthBalance, ctgSouthBalance, totalBalance);\n    }\n\n    // getting donor info\n    function getDonorInfoByAddress(address _donorAddress) public view returns (string memory, string memory) {\n        require(bytes(donorList[_donorAddress].name).length != 0 || bytes(donorList[_donorAddress].mobileNumber).length != 0, \"Address not registered\" );\n        //  the above require here is optional and it is to check if the address is registered or not. but it is, optional \n        return (donorList[_donorAddress].name, donorList[_donorAddress].mobileNumber);\n    }\n\n}\n\n",
  "sourcePath": "/home/osboxes/Downloads/446/FloodFund/contracts/FloodFund.sol",
  "compiler": {
    "name": "solc",
    "version": "0.8.16+commit.07a7930e.Emscripten.clang"
  },
  "schemaVersion": "3.4.16",
  "updatedAt": "2024-09-15T18:55:25.114Z",
  "networkType": "ethereum",
  "devdoc": {
    "kind": "dev",
    "methods": {},
    "version": 1
  },
  "userdoc": {
    "kind": "user",
    "methods": {},
    "version": 1
  }
}