{
  "contractName": "Fundraiser",
  "abi": [
    {
      "inputs": [],
      "stateMutability": "nonpayable",
      "type": "constructor"
    },
    {
      "inputs": [
        {
          "internalType": "address",
          "name": "",
          "type": "address"
        }
      ],
      "name": "donors",
      "outputs": [
        {
          "internalType": "string",
          "name": "name",
          "type": "string"
        },
        {
          "internalType": "string",
          "name": "mobileNumber",
          "type": "string"
        },
        {
          "internalType": "bool",
          "name": "isRegistered",
          "type": "bool"
        }
      ],
      "stateMutability": "view",
      "type": "function"
    },
    {
      "inputs": [
        {
          "internalType": "enum Fundraiser.Region",
          "name": "",
          "type": "uint8"
        }
      ],
      "name": "fundraisers",
      "outputs": [
        {
          "internalType": "address payable",
          "name": "",
          "type": "address"
        }
      ],
      "stateMutability": "view",
      "type": "function"
    },
    {
      "inputs": [
        {
          "internalType": "enum Fundraiser.Region",
          "name": "",
          "type": "uint8"
        }
      ],
      "name": "totalDonations",
      "outputs": [
        {
          "internalType": "uint256",
          "name": "",
          "type": "uint256"
        }
      ],
      "stateMutability": "view",
      "type": "function"
    },
    {
      "inputs": [
        {
          "internalType": "string",
          "name": "name",
          "type": "string"
        },
        {
          "internalType": "string",
          "name": "mobileNumber",
          "type": "string"
        }
      ],
      "name": "registerDonor",
      "outputs": [],
      "stateMutability": "nonpayable",
      "type": "function"
    },
    {
      "inputs": [
        {
          "internalType": "enum Fundraiser.Region",
          "name": "region",
          "type": "uint8"
        },
        {
          "internalType": "string",
          "name": "mobileNumber",
          "type": "string"
        }
      ],
      "name": "donate",
      "outputs": [],
      "stateMutability": "payable",
      "type": "function"
    },
    {
      "inputs": [],
      "name": "getTotalDonation",
      "outputs": [
        {
          "internalType": "uint256",
          "name": "",
          "type": "uint256"
        }
      ],
      "stateMutability": "view",
      "type": "function"
    },
    {
      "inputs": [
        {
          "internalType": "enum Fundraiser.Region",
          "name": "region",
          "type": "uint8"
        }
      ],
      "name": "getDonationAmount",
      "outputs": [
        {
          "internalType": "uint256",
          "name": "",
          "type": "uint256"
        }
      ],
      "stateMutability": "view",
      "type": "function"
    },
    {
      "inputs": [
        {
          "internalType": "address",
          "name": "donorAddress",
          "type": "address"
        }
      ],
      "name": "getDonorInfo",
      "outputs": [
        {
          "internalType": "string",
          "name": "name",
          "type": "string"
        },
        {
          "internalType": "string",
          "name": "mobileNumber",
          "type": "string"
        }
      ],
      "stateMutability": "view",
      "type": "function"
    }
  ],
  "bytecode": "0x60806040523480156200001157600080fd5b50735b38da6a701c568545dcfcb03fcb875f56beddc460008080600281111562000040576200003f620001c6565b5b6002811115620000555762000054620001c6565b5b815260200190815260200160002060006101000a81548173ffffffffffffffffffffffffffffffffffffffff021916908373ffffffffffffffffffffffffffffffffffffffff16021790555073ab8483f64d9c6d1ecf9b849ae677dd3315835cb260008060016002811115620000d057620000cf620001c6565b5b6002811115620000e557620000e4620001c6565b5b815260200190815260200160002060006101000a81548173ffffffffffffffffffffffffffffffffffffffff021916908373ffffffffffffffffffffffffffffffffffffffff160217905550734b20993bc481177ec7e8f571cecae8a9e22c02db6000806002808111156200015f576200015e620001c6565b5b6002811115620001745762000173620001c6565b5b815260200190815260200160002060006101000a81548173ffffffffffffffffffffffffffffffffffffffff021916908373ffffffffffffffffffffffffffffffffffffffff160217905550620001f5565b7f4e487b7100000000000000000000000000000000000000000000000000000000600052602160045260246000fd5b61196680620002056000396000f3fe60806040526004361061007b5760003560e01c8063a577589e1161004e578063a577589e14610162578063c46a60a51461018b578063ca0cdea8146101c9578063ca8b0309146102085761007b565b806312fa5bc4146100805780631b777d3b146100bd57806356e23eb1146100fa5780638d284fad14610125575b600080fd5b34801561008c57600080fd5b506100a760048036038101906100a29190610d61565b610224565b6040516100b49190610da7565b60405180910390f35b3480156100c957600080fd5b506100e460048036038101906100df9190610d61565b61023c565b6040516100f19190610e03565b60405180910390f35b34801561010657600080fd5b5061010f61026f565b60405161011c9190610da7565b60405180910390f35b34801561013157600080fd5b5061014c60048036038101906101479190610d61565b610333565b6040516101599190610da7565b60405180910390f35b34801561016e57600080fd5b5061018960048036038101906101849190610f64565b610374565b005b34801561019757600080fd5b506101b260048036038101906101ad919061101a565b61071e565b6040516101c09291906110c6565b60405180910390f35b3480156101d557600080fd5b506101f060048036038101906101eb919061101a565b610951565b6040516101ff93929190611118565b60405180910390f35b610222600480360381019061021d919061115d565b610a98565b005b60016020528060005260406000206000915090505481565b60006020528060005260406000206000915054906101000a900473ffffffffffffffffffffffffffffffffffffffff1681565b600060016000600280811115610288576102876111b9565b5b600281111561029a576102996111b9565b5b81526020019081526020016000205460016000600160028111156102c1576102c06111b9565b5b60028111156102d3576102d26111b9565b5b815260200190815260200160002054600160008060028111156102f9576102f86111b9565b5b600281111561030b5761030a6111b9565b5b8152602001908152602001600020546103249190611217565b61032e9190611217565b905090565b60006001600083600281111561034c5761034b6111b9565b5b600281111561035e5761035d6111b9565b5b8152602001908152602001600020549050919050565b60008080600281111561038a576103896111b9565b5b600281111561039c5761039b6111b9565b5b815260200190815260200160002060009054906101000a900473ffffffffffffffffffffffffffffffffffffffff1673ffffffffffffffffffffffffffffffffffffffff163373ffffffffffffffffffffffffffffffffffffffff1614158015610489575060008060016002811115610418576104176111b9565b5b600281111561042a576104296111b9565b5b815260200190815260200160002060009054906101000a900473ffffffffffffffffffffffffffffffffffffffff1673ffffffffffffffffffffffffffffffffffffffff163373ffffffffffffffffffffffffffffffffffffffff1614155b801561051757506000806002808111156104a6576104a56111b9565b5b60028111156104b8576104b76111b9565b5b815260200190815260200160002060009054906101000a900473ffffffffffffffffffffffffffffffffffffffff1673ffffffffffffffffffffffffffffffffffffffff163373ffffffffffffffffffffffffffffffffffffffff1614155b610556576040517f08c379a000000000000000000000000000000000000000000000000000000000815260040161054d906112bd565b60405180910390fd5b600082511161059a576040517f08c379a000000000000000000000000000000000000000000000000000000000815260040161059190611329565b60405180910390fd5b60008151116105de576040517f08c379a00000000000000000000000000000000000000000000000000000000081526004016105d590611395565b60405180910390fd5b600260003373ffffffffffffffffffffffffffffffffffffffff1673ffffffffffffffffffffffffffffffffffffffff16815260200190815260200160002060020160009054906101000a900460ff161561066e576040517f08c379a000000000000000000000000000000000000000000000000000000000815260040161066590611401565b60405180910390fd5b604051806060016040528083815260200182815260200160011515815250600260003373ffffffffffffffffffffffffffffffffffffffff1673ffffffffffffffffffffffffffffffffffffffff16815260200190815260200160002060008201518160000190816106e0919061162d565b5060208201518160010190816106f6919061162d565b5060408201518160020160006101000a81548160ff0219169083151502179055509050505050565b606080600260008473ffffffffffffffffffffffffffffffffffffffff1673ffffffffffffffffffffffffffffffffffffffff16815260200190815260200160002060020160009054906101000a900460ff166107b0576040517f08c379a00000000000000000000000000000000000000000000000000000000081526004016107a79061174b565b60405180910390fd5b6000600260008573ffffffffffffffffffffffffffffffffffffffff1673ffffffffffffffffffffffffffffffffffffffff16815260200190815260200160002060405180606001604052908160008201805461080c90611450565b80601f016020809104026020016040519081016040528092919081815260200182805461083890611450565b80156108855780601f1061085a57610100808354040283529160200191610885565b820191906000526020600020905b81548152906001019060200180831161086857829003601f168201915b5050505050815260200160018201805461089e90611450565b80601f01602080910402602001604051908101604052809291908181526020018280546108ca90611450565b80156109175780601f106108ec57610100808354040283529160200191610917565b820191906000526020600020905b8154815290600101906020018083116108fa57829003601f168201915b505050505081526020016002820160009054906101000a900460ff1615151515815250509050806000015181602001519250925050915091565b600260205280600052604060002060009150905080600001805461097490611450565b80601f01602080910402602001604051908101604052809291908181526020018280546109a090611450565b80156109ed5780601f106109c2576101008083540402835291602001916109ed565b820191906000526020600020905b8154815290600101906020018083116109d057829003601f168201915b505050505090806001018054610a0290611450565b80601f0160208091040260200160405190810160405280929190818152602001828054610a2e90611450565b8015610a7b5780601f10610a5057610100808354040283529160200191610a7b565b820191906000526020600020905b815481529060010190602001808311610a5e57829003601f168201915b5050505050908060020160009054906101000a900460ff16905083565b60003411610adb576040517f08c379a0000000000000000000000000000000000000000000000000000000008152600401610ad2906117b7565b60405180910390fd5b600260003373ffffffffffffffffffffffffffffffffffffffff1673ffffffffffffffffffffffffffffffffffffffff16815260200190815260200160002060020160009054906101000a900460ff16610b6a576040517f08c379a0000000000000000000000000000000000000000000000000000000008152600401610b619061174b565b60405180910390fd5b80604051602001610b7b9190611813565b60405160208183030381529060405280519060200120600260003373ffffffffffffffffffffffffffffffffffffffff1673ffffffffffffffffffffffffffffffffffffffff168152602001908152602001600020600101604051602001610be391906118ad565b6040516020818303038152906040528051906020012014610c39576040517f08c379a0000000000000000000000000000000000000000000000000000000008152600401610c3090611910565b60405180910390fd5b600080836002811115610c4f57610c4e6111b9565b5b6002811115610c6157610c606111b9565b5b815260200190815260200160002060009054906101000a900473ffffffffffffffffffffffffffffffffffffffff1673ffffffffffffffffffffffffffffffffffffffff166108fc349081150290604051600060405180830381858888f19350505050158015610cd5573d6000803e3d6000fd5b503460016000846002811115610cee57610ced6111b9565b5b6002811115610d0057610cff6111b9565b5b81526020019081526020016000206000828254610d1d9190611217565b925050819055505050565b6000604051905090565b600080fd5b600080fd5b60038110610d4957600080fd5b50565b600081359050610d5b81610d3c565b92915050565b600060208284031215610d7757610d76610d32565b5b6000610d8584828501610d4c565b91505092915050565b6000819050919050565b610da181610d8e565b82525050565b6000602082019050610dbc6000830184610d98565b92915050565b600073ffffffffffffffffffffffffffffffffffffffff82169050919050565b6000610ded82610dc2565b9050919050565b610dfd81610de2565b82525050565b6000602082019050610e186000830184610df4565b92915050565b600080fd5b600080fd5b6000601f19601f8301169050919050565b7f4e487b7100000000000000000000000000000000000000000000000000000000600052604160045260246000fd5b610e7182610e28565b810181811067ffffffffffffffff82111715610e9057610e8f610e39565b5b80604052505050565b6000610ea3610d28565b9050610eaf8282610e68565b919050565b600067ffffffffffffffff821115610ecf57610ece610e39565b5b610ed882610e28565b9050602081019050919050565b82818337600083830152505050565b6000610f07610f0284610eb4565b610e99565b905082815260208101848484011115610f2357610f22610e23565b5b610f2e848285610ee5565b509392505050565b600082601f830112610f4b57610f4a610e1e565b5b8135610f5b848260208601610ef4565b91505092915050565b60008060408385031215610f7b57610f7a610d32565b5b600083013567ffffffffffffffff811115610f9957610f98610d37565b5b610fa585828601610f36565b925050602083013567ffffffffffffffff811115610fc657610fc5610d37565b5b610fd285828601610f36565b9150509250929050565b6000610fe782610dc2565b9050919050565b610ff781610fdc565b811461100257600080fd5b50565b60008135905061101481610fee565b92915050565b6000602082840312156110305761102f610d32565b5b600061103e84828501611005565b91505092915050565b600081519050919050565b600082825260208201905092915050565b60005b83811015611081578082015181840152602081019050611066565b60008484015250505050565b600061109882611047565b6110a28185611052565b93506110b2818560208601611063565b6110bb81610e28565b840191505092915050565b600060408201905081810360008301526110e0818561108d565b905081810360208301526110f4818461108d565b90509392505050565b60008115159050919050565b611112816110fd565b82525050565b60006060820190508181036000830152611132818661108d565b90508181036020830152611146818561108d565b90506111556040830184611109565b949350505050565b6000806040838503121561117457611173610d32565b5b600061118285828601610d4c565b925050602083013567ffffffffffffffff8111156111a3576111a2610d37565b5b6111af85828601610f36565b9150509250929050565b7f4e487b7100000000000000000000000000000000000000000000000000000000600052602160045260246000fd5b7f4e487b7100000000000000000000000000000000000000000000000000000000600052601160045260246000fd5b600061122282610d8e565b915061122d83610d8e565b9250828201905080821115611245576112446111e8565b5b92915050565b7f46756e64726169736572206163636f756e74732063616e6e6f7420726567697360008201527f74657220617320646f6e6f727300000000000000000000000000000000000000602082015250565b60006112a7602d83611052565b91506112b28261124b565b604082019050919050565b600060208201905081810360008301526112d68161129a565b9050919050565b7f4e616d6520726571756972656400000000000000000000000000000000000000600082015250565b6000611313600d83611052565b915061131e826112dd565b602082019050919050565b6000602082019050818103600083015261134281611306565b9050919050565b7f4d6f62696c65206e756d62657220726571756972656400000000000000000000600082015250565b600061137f601683611052565b915061138a82611349565b602082019050919050565b600060208201905081810360008301526113ae81611372565b9050919050565b7f416c726561647920726567697374657265640000000000000000000000000000600082015250565b60006113eb601283611052565b91506113f6826113b5565b602082019050919050565b6000602082019050818103600083015261141a816113de565b9050919050565b7f4e487b7100000000000000000000000000000000000000000000000000000000600052602260045260246000fd5b6000600282049050600182168061146857607f821691505b60208210810361147b5761147a611421565b5b50919050565b60008190508160005260206000209050919050565b60006020601f8301049050919050565b600082821b905092915050565b6000600883026114e37fffffffffffffffffffffffffffffffffffffffffffffffffffffffffffffffff826114a6565b6114ed86836114a6565b95508019841693508086168417925050509392505050565b6000819050919050565b600061152a61152561152084610d8e565b611505565b610d8e565b9050919050565b6000819050919050565b6115448361150f565b61155861155082611531565b8484546114b3565b825550505050565b600090565b61156d611560565b61157881848461153b565b505050565b5b8181101561159c57611591600082611565565b60018101905061157e565b5050565b601f8211156115e1576115b281611481565b6115bb84611496565b810160208510156115ca578190505b6115de6115d685611496565b83018261157d565b50505b505050565b600082821c905092915050565b6000611604600019846008026115e6565b1980831691505092915050565b600061161d83836115f3565b9150826002028217905092915050565b61163682611047565b67ffffffffffffffff81111561164f5761164e610e39565b5b6116598254611450565b6116648282856115a0565b600060209050601f8311600181146116975760008415611685578287015190505b61168f8582611611565b8655506116f7565b601f1984166116a586611481565b60005b828110156116cd578489015182556001820191506020850194506020810190506116a8565b868310156116ea57848901516116e6601f8916826115f3565b8355505b6001600288020188555050505b505050505050565b7f4e6f742072656769737465726564000000000000000000000000000000000000600082015250565b6000611735600e83611052565b9150611740826116ff565b602082019050919050565b6000602082019050818103600083015261176481611728565b9050919050565b7f446f6e6174696f6e20616d6f756e742063616e6e6f7420626520300000000000600082015250565b60006117a1601b83611052565b91506117ac8261176b565b602082019050919050565b600060208201905081810360008301526117d081611794565b9050919050565b600081905092915050565b60006117ed82611047565b6117f781856117d7565b9350611807818560208601611063565b80840191505092915050565b600061181f82846117e2565b915081905092915050565b6000815461183781611450565b61184181866117d7565b9450600182166000811461185c5760018114611871576118a4565b60ff19831686528115158202860193506118a4565b61187a85611481565b60005b8381101561189c5781548189015260018201915060208101905061187d565b838801955050505b50505092915050565b60006118b9828461182a565b915081905092915050565b7f4d6f62696c65206e756d62657220646f6573206e6f74206d6174636800000000600082015250565b60006118fa601c83611052565b9150611905826118c4565b602082019050919050565b60006020820190508181036000830152611929816118ed565b905091905056fea26469706673582212209aa243c8fe66da41cca2f59dd3dc655bfd2429b22752d058b571b5ff8bd209ac64736f6c63430008100033",
  "immutableReferences": {},
  "source": "// SPDX-License-Identifier: GPL-3.0\r\n\r\npragma solidity >=0.8.0 <0.9.0;\r\n\r\n\r\ncontract Fundraiser {\r\n\r\n    enum Region {Sylhet, ChittagongSouth, ChittagongNorth}\r\n\r\n    struct Donor {\r\n        string name;\r\n        string mobileNumber;\r\n        bool isRegistered;\r\n    }\r\n\r\n    mapping(Region => address payable) public fundraisers;\r\n    mapping(Region => uint256) public totalDonations;\r\n    mapping(address => Donor) public donors;\r\n\r\n    constructor() {\r\n        fundraisers[Region.Sylhet] = payable(0x5B38Da6a701c568545dCfcB03FcB875f56beddC4);\r\n        fundraisers[Region.ChittagongSouth] = payable(0xAb8483F64d9C6d1EcF9b849Ae677dD3315835cb2);\r\n        fundraisers[Region.ChittagongNorth] = payable(0x4B20993Bc481177ec7E8f571ceCaE8A9e22C02db);\r\n    }\r\n\r\n\r\n    function registerDonor(string memory name, string memory mobileNumber) external {\r\n    require(\r\n        msg.sender != fundraisers[Region.Sylhet] &&\r\n        msg.sender != fundraisers[Region.ChittagongSouth] &&\r\n        msg.sender != fundraisers[Region.ChittagongNorth],\r\n        \"Fundraiser accounts cannot register as donors\"\r\n    );\r\n\r\n    require(bytes(name).length > 0, \"Name required\");\r\n    require(bytes(mobileNumber).length > 0, \"Mobile number required\");\r\n    require(!donors[msg.sender].isRegistered, \"Already registered\");\r\n\r\n    donors[msg.sender] = Donor(name, mobileNumber, true);\r\n}\r\n\r\n\r\n    function donate(Region region, string memory mobileNumber) external payable {\r\n        require(msg.value > 0, \"Donation amount cannot be 0\");\r\n        require(donors[msg.sender].isRegistered, \"Not registered\");\r\n        require(\r\n            keccak256(abi.encodePacked(donors[msg.sender].mobileNumber)) == keccak256(abi.encodePacked(mobileNumber)),\r\n            \"Mobile number does not match\"\r\n        );\r\n        \r\n        fundraisers[region].transfer(msg.value);\r\n        totalDonations[region] += msg.value;\r\n\r\n    }\r\n\r\n    function getTotalDonation() external view returns (uint256) {\r\n        return totalDonations[Region.Sylhet] + totalDonations[Region.ChittagongSouth] + totalDonations[Region.ChittagongNorth];\r\n    }\r\n\r\n    function getDonationAmount(Region region) external view returns (uint256) {\r\n        return totalDonations[region];\r\n    }\r\n\r\n    function getDonorInfo(address donorAddress) external view returns (string memory name, string memory mobileNumber) {\r\n        require(donors[donorAddress].isRegistered, \"Not registered\");\r\n        Donor memory donor = donors[donorAddress];\r\n        return (donor.name, donor.mobileNumber);\r\n    }\r\n}",
  "sourcePath": "/home/osboxes/Downloads/446/election/contracts/FloodFund.sol",
  "compiler": {
    "name": "solc",
    "version": "0.8.16+commit.07a7930e.Emscripten.clang"
  },
  "schemaVersion": "3.4.16",
  "updatedAt": "2024-09-15T17:06:25.747Z",
  "devdoc": {
    "kind": "dev",
    "methods": {},
    "version": 1
  },
  "userdoc": {
    "kind": "user",
    "methods": {},
    "version": 1
  }
}